{
  "address": "0x25c8c0063e6CBA69161a609304c449dE80F12206",
  "abi": [
    {
      "inputs": [],
      "stateMutability": "nonpayable",
      "type": "constructor"
    },
    {
      "anonymous": false,
      "inputs": [
        {
          "indexed": true,
          "internalType": "address",
          "name": "owner",
          "type": "address"
        },
        {
          "indexed": true,
          "internalType": "address",
          "name": "approved",
          "type": "address"
        },
        {
          "indexed": true,
          "internalType": "uint256",
          "name": "tokenId",
          "type": "uint256"
        }
      ],
      "name": "Approval",
      "type": "event"
    },
    {
      "anonymous": false,
      "inputs": [
        {
          "indexed": true,
          "internalType": "address",
          "name": "owner",
          "type": "address"
        },
        {
          "indexed": true,
          "internalType": "address",
          "name": "operator",
          "type": "address"
        },
        {
          "indexed": false,
          "internalType": "bool",
          "name": "approved",
          "type": "bool"
        }
      ],
      "name": "ApprovalForAll",
      "type": "event"
    },
    {
      "anonymous": false,
      "inputs": [
        {
          "indexed": true,
          "internalType": "address",
          "name": "previousOwner",
          "type": "address"
        },
        {
          "indexed": true,
          "internalType": "address",
          "name": "newOwner",
          "type": "address"
        }
      ],
      "name": "OwnershipTransferred",
      "type": "event"
    },
    {
      "anonymous": false,
      "inputs": [
        {
          "indexed": true,
          "internalType": "address",
          "name": "from",
          "type": "address"
        },
        {
          "indexed": true,
          "internalType": "address",
          "name": "to",
          "type": "address"
        },
        {
          "indexed": true,
          "internalType": "uint256",
          "name": "tokenId",
          "type": "uint256"
        }
      ],
      "name": "Transfer",
      "type": "event"
    },
    {
      "inputs": [
        {
          "internalType": "address",
          "name": "to",
          "type": "address"
        },
        {
          "internalType": "uint256",
          "name": "tokenId",
          "type": "uint256"
        }
      ],
      "name": "approve",
      "outputs": [],
      "stateMutability": "nonpayable",
      "type": "function"
    },
    {
      "inputs": [
        {
          "internalType": "address",
          "name": "owner",
          "type": "address"
        }
      ],
      "name": "balanceOf",
      "outputs": [
        {
          "internalType": "uint256",
          "name": "",
          "type": "uint256"
        }
      ],
      "stateMutability": "view",
      "type": "function"
    },
    {
      "inputs": [
        {
          "internalType": "uint256",
          "name": "tokenId",
          "type": "uint256"
        }
      ],
      "name": "getApproved",
      "outputs": [
        {
          "internalType": "address",
          "name": "",
          "type": "address"
        }
      ],
      "stateMutability": "view",
      "type": "function"
    },
    {
      "inputs": [
        {
          "internalType": "address",
          "name": "owner",
          "type": "address"
        },
        {
          "internalType": "address",
          "name": "operator",
          "type": "address"
        }
      ],
      "name": "isApprovedForAll",
      "outputs": [
        {
          "internalType": "bool",
          "name": "",
          "type": "bool"
        }
      ],
      "stateMutability": "view",
      "type": "function"
    },
    {
      "inputs": [
        {
          "internalType": "string",
          "name": "_tokenURI",
          "type": "string"
        }
      ],
      "name": "mint",
      "outputs": [],
      "stateMutability": "nonpayable",
      "type": "function"
    },
    {
      "inputs": [],
      "name": "name",
      "outputs": [
        {
          "internalType": "string",
          "name": "",
          "type": "string"
        }
      ],
      "stateMutability": "view",
      "type": "function"
    },
    {
      "inputs": [],
      "name": "owner",
      "outputs": [
        {
          "internalType": "address",
          "name": "",
          "type": "address"
        }
      ],
      "stateMutability": "view",
      "type": "function"
    },
    {
      "inputs": [
        {
          "internalType": "uint256",
          "name": "tokenId",
          "type": "uint256"
        }
      ],
      "name": "ownerOf",
      "outputs": [
        {
          "internalType": "address",
          "name": "",
          "type": "address"
        }
      ],
      "stateMutability": "view",
      "type": "function"
    },
    {
      "inputs": [],
      "name": "renounceOwnership",
      "outputs": [],
      "stateMutability": "nonpayable",
      "type": "function"
    },
    {
      "inputs": [
        {
          "internalType": "address",
          "name": "from",
          "type": "address"
        },
        {
          "internalType": "address",
          "name": "to",
          "type": "address"
        },
        {
          "internalType": "uint256",
          "name": "tokenId",
          "type": "uint256"
        }
      ],
      "name": "safeTransferFrom",
      "outputs": [],
      "stateMutability": "nonpayable",
      "type": "function"
    },
    {
      "inputs": [
        {
          "internalType": "address",
          "name": "from",
          "type": "address"
        },
        {
          "internalType": "address",
          "name": "to",
          "type": "address"
        },
        {
          "internalType": "uint256",
          "name": "tokenId",
          "type": "uint256"
        },
        {
          "internalType": "bytes",
          "name": "data",
          "type": "bytes"
        }
      ],
      "name": "safeTransferFrom",
      "outputs": [],
      "stateMutability": "nonpayable",
      "type": "function"
    },
    {
      "inputs": [
        {
          "internalType": "address",
          "name": "operator",
          "type": "address"
        },
        {
          "internalType": "bool",
          "name": "approved",
          "type": "bool"
        }
      ],
      "name": "setApprovalForAll",
      "outputs": [],
      "stateMutability": "nonpayable",
      "type": "function"
    },
    {
      "inputs": [
        {
          "internalType": "bytes4",
          "name": "interfaceId",
          "type": "bytes4"
        }
      ],
      "name": "supportsInterface",
      "outputs": [
        {
          "internalType": "bool",
          "name": "",
          "type": "bool"
        }
      ],
      "stateMutability": "view",
      "type": "function"
    },
    {
      "inputs": [],
      "name": "symbol",
      "outputs": [
        {
          "internalType": "string",
          "name": "",
          "type": "string"
        }
      ],
      "stateMutability": "view",
      "type": "function"
    },
    {
      "inputs": [
        {
          "internalType": "uint256",
          "name": "tokenId",
          "type": "uint256"
        }
      ],
      "name": "tokenURI",
      "outputs": [
        {
          "internalType": "string",
          "name": "",
          "type": "string"
        }
      ],
      "stateMutability": "view",
      "type": "function"
    },
    {
      "inputs": [
        {
          "internalType": "address",
          "name": "from",
          "type": "address"
        },
        {
          "internalType": "address",
          "name": "to",
          "type": "address"
        },
        {
          "internalType": "uint256",
          "name": "tokenId",
          "type": "uint256"
        }
      ],
      "name": "transferFrom",
      "outputs": [],
      "stateMutability": "nonpayable",
      "type": "function"
    },
    {
      "inputs": [
        {
          "internalType": "address",
          "name": "newOwner",
          "type": "address"
        }
      ],
      "name": "transferOwnership",
      "outputs": [],
      "stateMutability": "nonpayable",
      "type": "function"
    }
  ],
  "transactionHash": "0x0a1b267cd6dcf203b010ccdbc0c8df470f5eeddf9885c62a62a101ac3f35efcb",
  "args": [],
  "numDeployments": 3,
  "solcInputHash": "c782894c5d54bf5cd1f3be4eb4a73a9c",
  "bytecode": "0x60806040523480156200001157600080fd5b506040518060400160405280600a81526020017f4261627920457468616e000000000000000000000000000000000000000000008152506040518060400160405280600381526020017f4546540000000000000000000000000000000000000000000000000000000000815250816000908051906020019062000096929190620001a6565b508060019080519060200190620000af929190620001a6565b505050620000d2620000c6620000d860201b60201c565b620000e060201b60201c565b620002bb565b600033905090565b6000600760009054906101000a900473ffffffffffffffffffffffffffffffffffffffff16905081600760006101000a81548173ffffffffffffffffffffffffffffffffffffffff021916908373ffffffffffffffffffffffffffffffffffffffff1602179055508173ffffffffffffffffffffffffffffffffffffffff168173ffffffffffffffffffffffffffffffffffffffff167f8be0079c531659141344cd1fd0a4f28419497f9722a3daafe3b4186f6b6457e060405160405180910390a35050565b828054620001b49062000285565b90600052602060002090601f016020900481019282620001d8576000855562000224565b82601f10620001f357805160ff191683800117855562000224565b8280016001018555821562000224579182015b828111156200022357825182559160200191906001019062000206565b5b50905062000233919062000237565b5090565b5b808211156200025257600081600090555060010162000238565b5090565b7f4e487b7100000000000000000000000000000000000000000000000000000000600052602260045260246000fd5b600060028204905060018216806200029e57607f821691505b60208210811415620002b557620002b462000256565b5b50919050565b612c7e80620002cb6000396000f3fe608060405234801561001057600080fd5b506004361061010b5760003560e01c8063715018a6116100a2578063b88d4fde11610071578063b88d4fde146102a4578063c87b56dd146102c0578063d85d3d27146102f0578063e985e9c51461030c578063f2fde38b1461033c5761010b565b8063715018a6146102425780638da5cb5b1461024c57806395d89b411461026a578063a22cb465146102885761010b565b806323b872dd116100de57806323b872dd146101aa57806342842e0e146101c65780636352211e146101e257806370a08231146102125761010b565b806301ffc9a71461011057806306fdde0314610140578063081812fc1461015e578063095ea7b31461018e575b600080fd5b61012a60048036038101906101259190611b63565b610358565b6040516101379190611bab565b60405180910390f35b61014861043a565b6040516101559190611c5f565b60405180910390f35b61017860048036038101906101739190611cb7565b6104cc565b6040516101859190611d25565b60405180910390f35b6101a860048036038101906101a39190611d6c565b610512565b005b6101c460048036038101906101bf9190611dac565b61062a565b005b6101e060048036038101906101db9190611dac565b61068a565b005b6101fc60048036038101906101f79190611cb7565b6106aa565b6040516102099190611d25565b60405180910390f35b61022c60048036038101906102279190611dff565b61075c565b6040516102399190611e3b565b60405180910390f35b61024a610814565b005b610254610828565b6040516102619190611d25565b60405180910390f35b610272610852565b60405161027f9190611c5f565b60405180910390f35b6102a2600480360381019061029d9190611e82565b6108e4565b005b6102be60048036038101906102b99190611ff7565b6108fa565b005b6102da60048036038101906102d59190611cb7565b61095c565b6040516102e79190611c5f565b60405180910390f35b61030a6004803603810190610305919061211b565b61096e565b005b61032660048036038101906103219190612164565b6109af565b6040516103339190611bab565b60405180910390f35b61035660048036038101906103519190611dff565b610a43565b005b60007f80ac58cd000000000000000000000000000000000000000000000000000000007bffffffffffffffffffffffffffffffffffffffffffffffffffffffff1916827bffffffffffffffffffffffffffffffffffffffffffffffffffffffff1916148061042357507f5b5e139f000000000000000000000000000000000000000000000000000000007bffffffffffffffffffffffffffffffffffffffffffffffffffffffff1916827bffffffffffffffffffffffffffffffffffffffffffffffffffffffff1916145b80610433575061043282610ac7565b5b9050919050565b606060008054610449906121d3565b80601f0160208091040260200160405190810160405280929190818152602001828054610475906121d3565b80156104c25780601f10610497576101008083540402835291602001916104c2565b820191906000526020600020905b8154815290600101906020018083116104a557829003601f168201915b5050505050905090565b60006104d782610b31565b6004600083815260200190815260200160002060009054906101000a900473ffffffffffffffffffffffffffffffffffffffff169050919050565b600061051d826106aa565b90508073ffffffffffffffffffffffffffffffffffffffff168373ffffffffffffffffffffffffffffffffffffffff16141561058e576040517f08c379a000000000000000000000000000000000000000000000000000000000815260040161058590612277565b60405180910390fd5b8073ffffffffffffffffffffffffffffffffffffffff166105ad610b7c565b73ffffffffffffffffffffffffffffffffffffffff1614806105dc57506105db816105d6610b7c565b6109af565b5b61061b576040517f08c379a000000000000000000000000000000000000000000000000000000000815260040161061290612309565b60405180910390fd5b6106258383610b84565b505050565b61063b610635610b7c565b82610c3d565b61067a576040517f08c379a00000000000000000000000000000000000000000000000000000000081526004016106719061239b565b60405180910390fd5b610685838383610cd2565b505050565b6106a5838383604051806020016040528060008152506108fa565b505050565b6000806002600084815260200190815260200160002060009054906101000a900473ffffffffffffffffffffffffffffffffffffffff169050600073ffffffffffffffffffffffffffffffffffffffff168173ffffffffffffffffffffffffffffffffffffffff161415610753576040517f08c379a000000000000000000000000000000000000000000000000000000000815260040161074a90612407565b60405180910390fd5b80915050919050565b60008073ffffffffffffffffffffffffffffffffffffffff168273ffffffffffffffffffffffffffffffffffffffff1614156107cd576040517f08c379a00000000000000000000000000000000000000000000000000000000081526004016107c490612499565b60405180910390fd5b600360008373ffffffffffffffffffffffffffffffffffffffff1673ffffffffffffffffffffffffffffffffffffffff168152602001908152602001600020549050919050565b61081c610f39565b6108266000610fb7565b565b6000600760009054906101000a900473ffffffffffffffffffffffffffffffffffffffff16905090565b606060018054610861906121d3565b80601f016020809104026020016040519081016040528092919081815260200182805461088d906121d3565b80156108da5780601f106108af576101008083540402835291602001916108da565b820191906000526020600020905b8154815290600101906020018083116108bd57829003601f168201915b5050505050905090565b6108f66108ef610b7c565b838361107d565b5050565b61090b610905610b7c565b83610c3d565b61094a576040517f08c379a00000000000000000000000000000000000000000000000000000000081526004016109419061239b565b60405180910390fd5b610956848484846111ea565b50505050565b606061096782611246565b9050919050565b610976610f39565b60006109826008611359565b905061098e3382611367565b6109986008611385565b6109ab6109a56008611359565b8361139b565b5050565b6000600560008473ffffffffffffffffffffffffffffffffffffffff1673ffffffffffffffffffffffffffffffffffffffff16815260200190815260200160002060008373ffffffffffffffffffffffffffffffffffffffff1673ffffffffffffffffffffffffffffffffffffffff16815260200190815260200160002060009054906101000a900460ff16905092915050565b610a4b610f39565b600073ffffffffffffffffffffffffffffffffffffffff168173ffffffffffffffffffffffffffffffffffffffff161415610abb576040517f08c379a0000000000000000000000000000000000000000000000000000000008152600401610ab29061252b565b60405180910390fd5b610ac481610fb7565b50565b60007f01ffc9a7000000000000000000000000000000000000000000000000000000007bffffffffffffffffffffffffffffffffffffffffffffffffffffffff1916827bffffffffffffffffffffffffffffffffffffffffffffffffffffffff1916149050919050565b610b3a8161140f565b610b79576040517f08c379a0000000000000000000000000000000000000000000000000000000008152600401610b7090612407565b60405180910390fd5b50565b600033905090565b816004600083815260200190815260200160002060006101000a81548173ffffffffffffffffffffffffffffffffffffffff021916908373ffffffffffffffffffffffffffffffffffffffff160217905550808273ffffffffffffffffffffffffffffffffffffffff16610bf7836106aa565b73ffffffffffffffffffffffffffffffffffffffff167f8c5be1e5ebec7d5bd14f71427d1e84f3dd0314c0f7b2291e5b200ac8c7c3b92560405160405180910390a45050565b600080610c49836106aa565b90508073ffffffffffffffffffffffffffffffffffffffff168473ffffffffffffffffffffffffffffffffffffffff161480610c8b5750610c8a81856109af565b5b80610cc957508373ffffffffffffffffffffffffffffffffffffffff16610cb1846104cc565b73ffffffffffffffffffffffffffffffffffffffff16145b91505092915050565b8273ffffffffffffffffffffffffffffffffffffffff16610cf2826106aa565b73ffffffffffffffffffffffffffffffffffffffff1614610d48576040517f08c379a0000000000000000000000000000000000000000000000000000000008152600401610d3f906125bd565b60405180910390fd5b600073ffffffffffffffffffffffffffffffffffffffff168273ffffffffffffffffffffffffffffffffffffffff161415610db8576040517f08c379a0000000000000000000000000000000000000000000000000000000008152600401610daf9061264f565b60405180910390fd5b610dc383838361147b565b610dce600082610b84565b6001600360008573ffffffffffffffffffffffffffffffffffffffff1673ffffffffffffffffffffffffffffffffffffffff1681526020019081526020016000206000828254610e1e919061269e565b925050819055506001600360008473ffffffffffffffffffffffffffffffffffffffff1673ffffffffffffffffffffffffffffffffffffffff1681526020019081526020016000206000828254610e7591906126d2565b92505081905550816002600083815260200190815260200160002060006101000a81548173ffffffffffffffffffffffffffffffffffffffff021916908373ffffffffffffffffffffffffffffffffffffffff160217905550808273ffffffffffffffffffffffffffffffffffffffff168473ffffffffffffffffffffffffffffffffffffffff167fddf252ad1be2c89b69c2b068fc378daa952ba7f163c4a11628f55a4df523b3ef60405160405180910390a4610f34838383611480565b505050565b610f41610b7c565b73ffffffffffffffffffffffffffffffffffffffff16610f5f610828565b73ffffffffffffffffffffffffffffffffffffffff1614610fb5576040517f08c379a0000000000000000000000000000000000000000000000000000000008152600401610fac90612774565b60405180910390fd5b565b6000600760009054906101000a900473ffffffffffffffffffffffffffffffffffffffff16905081600760006101000a81548173ffffffffffffffffffffffffffffffffffffffff021916908373ffffffffffffffffffffffffffffffffffffffff1602179055508173ffffffffffffffffffffffffffffffffffffffff168173ffffffffffffffffffffffffffffffffffffffff167f8be0079c531659141344cd1fd0a4f28419497f9722a3daafe3b4186f6b6457e060405160405180910390a35050565b8173ffffffffffffffffffffffffffffffffffffffff168373ffffffffffffffffffffffffffffffffffffffff1614156110ec576040517f08c379a00000000000000000000000000000000000000000000000000000000081526004016110e3906127e0565b60405180910390fd5b80600560008573ffffffffffffffffffffffffffffffffffffffff1673ffffffffffffffffffffffffffffffffffffffff16815260200190815260200160002060008473ffffffffffffffffffffffffffffffffffffffff1673ffffffffffffffffffffffffffffffffffffffff16815260200190815260200160002060006101000a81548160ff0219169083151502179055508173ffffffffffffffffffffffffffffffffffffffff168373ffffffffffffffffffffffffffffffffffffffff167f17307eab39ab6107e8899845ad3d59bd9653f200f220920489ca2b5937696c31836040516111dd9190611bab565b60405180910390a3505050565b6111f5848484610cd2565b61120184848484611485565b611240576040517f08c379a000000000000000000000000000000000000000000000000000000000815260040161123790612872565b60405180910390fd5b50505050565b606061125182610b31565b6000600660008481526020019081526020016000208054611271906121d3565b80601f016020809104026020016040519081016040528092919081815260200182805461129d906121d3565b80156112ea5780601f106112bf576101008083540402835291602001916112ea565b820191906000526020600020905b8154815290600101906020018083116112cd57829003601f168201915b5050505050905060006112fb61161c565b9050600081511415611311578192505050611354565b60008251111561134657808260405160200161132e9291906128ce565b60405160208183030381529060405292505050611354565b61134f84611633565b925050505b919050565b600081600001549050919050565b61138182826040518060200160405280600081525061169b565b5050565b6001816000016000828254019250508190555050565b6113a48261140f565b6113e3576040517f08c379a00000000000000000000000000000000000000000000000000000000081526004016113da90612964565b60405180910390fd5b8060066000848152602001908152602001600020908051906020019061140a929190611a54565b505050565b60008073ffffffffffffffffffffffffffffffffffffffff166002600084815260200190815260200160002060009054906101000a900473ffffffffffffffffffffffffffffffffffffffff1673ffffffffffffffffffffffffffffffffffffffff1614159050919050565b505050565b505050565b60006114a68473ffffffffffffffffffffffffffffffffffffffff166116f6565b1561160f578373ffffffffffffffffffffffffffffffffffffffff1663150b7a026114cf610b7c565b8786866040518563ffffffff1660e01b81526004016114f194939291906129d9565b602060405180830381600087803b15801561150b57600080fd5b505af192505050801561153c57506040513d601f19601f820116820180604052508101906115399190612a3a565b60015b6115bf573d806000811461156c576040519150601f19603f3d011682016040523d82523d6000602084013e611571565b606091505b506000815114156115b7576040517f08c379a00000000000000000000000000000000000000000000000000000000081526004016115ae90612872565b60405180910390fd5b805181602001fd5b63150b7a0260e01b7bffffffffffffffffffffffffffffffffffffffffffffffffffffffff1916817bffffffffffffffffffffffffffffffffffffffffffffffffffffffff191614915050611614565b600190505b949350505050565b606060405180602001604052806000815250905090565b606061163e82610b31565b600061164861161c565b905060008151116116685760405180602001604052806000815250611693565b8061167284611719565b6040516020016116839291906128ce565b6040516020818303038152906040525b915050919050565b6116a5838361187a565b6116b26000848484611485565b6116f1576040517f08c379a00000000000000000000000000000000000000000000000000000000081526004016116e890612872565b60405180910390fd5b505050565b6000808273ffffffffffffffffffffffffffffffffffffffff163b119050919050565b60606000821415611761576040518060400160405280600181526020017f30000000000000000000000000000000000000000000000000000000000000008152509050611875565b600082905060005b6000821461179357808061177c90612a67565b915050600a8261178c9190612adf565b9150611769565b60008167ffffffffffffffff8111156117af576117ae611ecc565b5b6040519080825280601f01601f1916602001820160405280156117e15781602001600182028036833780820191505090505b5090505b6000851461186e576001826117fa919061269e565b9150600a856118099190612b10565b603061181591906126d2565b60f81b81838151811061182b5761182a612b41565b5b60200101907effffffffffffffffffffffffffffffffffffffffffffffffffffffffffffff1916908160001a905350600a856118679190612adf565b94506117e5565b8093505050505b919050565b600073ffffffffffffffffffffffffffffffffffffffff168273ffffffffffffffffffffffffffffffffffffffff1614156118ea576040517f08c379a00000000000000000000000000000000000000000000000000000000081526004016118e190612bbc565b60405180910390fd5b6118f38161140f565b15611933576040517f08c379a000000000000000000000000000000000000000000000000000000000815260040161192a90612c28565b60405180910390fd5b61193f6000838361147b565b6001600360008473ffffffffffffffffffffffffffffffffffffffff1673ffffffffffffffffffffffffffffffffffffffff168152602001908152602001600020600082825461198f91906126d2565b92505081905550816002600083815260200190815260200160002060006101000a81548173ffffffffffffffffffffffffffffffffffffffff021916908373ffffffffffffffffffffffffffffffffffffffff160217905550808273ffffffffffffffffffffffffffffffffffffffff16600073ffffffffffffffffffffffffffffffffffffffff167fddf252ad1be2c89b69c2b068fc378daa952ba7f163c4a11628f55a4df523b3ef60405160405180910390a4611a5060008383611480565b5050565b828054611a60906121d3565b90600052602060002090601f016020900481019282611a825760008555611ac9565b82601f10611a9b57805160ff1916838001178555611ac9565b82800160010185558215611ac9579182015b82811115611ac8578251825591602001919060010190611aad565b5b509050611ad69190611ada565b5090565b5b80821115611af3576000816000905550600101611adb565b5090565b6000604051905090565b600080fd5b600080fd5b60007fffffffff0000000000000000000000000000000000000000000000000000000082169050919050565b611b4081611b0b565b8114611b4b57600080fd5b50565b600081359050611b5d81611b37565b92915050565b600060208284031215611b7957611b78611b01565b5b6000611b8784828501611b4e565b91505092915050565b60008115159050919050565b611ba581611b90565b82525050565b6000602082019050611bc06000830184611b9c565b92915050565b600081519050919050565b600082825260208201905092915050565b60005b83811015611c00578082015181840152602081019050611be5565b83811115611c0f576000848401525b50505050565b6000601f19601f8301169050919050565b6000611c3182611bc6565b611c3b8185611bd1565b9350611c4b818560208601611be2565b611c5481611c15565b840191505092915050565b60006020820190508181036000830152611c798184611c26565b905092915050565b6000819050919050565b611c9481611c81565b8114611c9f57600080fd5b50565b600081359050611cb181611c8b565b92915050565b600060208284031215611ccd57611ccc611b01565b5b6000611cdb84828501611ca2565b91505092915050565b600073ffffffffffffffffffffffffffffffffffffffff82169050919050565b6000611d0f82611ce4565b9050919050565b611d1f81611d04565b82525050565b6000602082019050611d3a6000830184611d16565b92915050565b611d4981611d04565b8114611d5457600080fd5b50565b600081359050611d6681611d40565b92915050565b60008060408385031215611d8357611d82611b01565b5b6000611d9185828601611d57565b9250506020611da285828601611ca2565b9150509250929050565b600080600060608486031215611dc557611dc4611b01565b5b6000611dd386828701611d57565b9350506020611de486828701611d57565b9250506040611df586828701611ca2565b9150509250925092565b600060208284031215611e1557611e14611b01565b5b6000611e2384828501611d57565b91505092915050565b611e3581611c81565b82525050565b6000602082019050611e506000830184611e2c565b92915050565b611e5f81611b90565b8114611e6a57600080fd5b50565b600081359050611e7c81611e56565b92915050565b60008060408385031215611e9957611e98611b01565b5b6000611ea785828601611d57565b9250506020611eb885828601611e6d565b9150509250929050565b600080fd5b600080fd5b7f4e487b7100000000000000000000000000000000000000000000000000000000600052604160045260246000fd5b611f0482611c15565b810181811067ffffffffffffffff82111715611f2357611f22611ecc565b5b80604052505050565b6000611f36611af7565b9050611f428282611efb565b919050565b600067ffffffffffffffff821115611f6257611f61611ecc565b5b611f6b82611c15565b9050602081019050919050565b82818337600083830152505050565b6000611f9a611f9584611f47565b611f2c565b905082815260208101848484011115611fb657611fb5611ec7565b5b611fc1848285611f78565b509392505050565b600082601f830112611fde57611fdd611ec2565b5b8135611fee848260208601611f87565b91505092915050565b6000806000806080858703121561201157612010611b01565b5b600061201f87828801611d57565b945050602061203087828801611d57565b935050604061204187828801611ca2565b925050606085013567ffffffffffffffff81111561206257612061611b06565b5b61206e87828801611fc9565b91505092959194509250565b600067ffffffffffffffff82111561209557612094611ecc565b5b61209e82611c15565b9050602081019050919050565b60006120be6120b98461207a565b611f2c565b9050828152602081018484840111156120da576120d9611ec7565b5b6120e5848285611f78565b509392505050565b600082601f83011261210257612101611ec2565b5b81356121128482602086016120ab565b91505092915050565b60006020828403121561213157612130611b01565b5b600082013567ffffffffffffffff81111561214f5761214e611b06565b5b61215b848285016120ed565b91505092915050565b6000806040838503121561217b5761217a611b01565b5b600061218985828601611d57565b925050602061219a85828601611d57565b9150509250929050565b7f4e487b7100000000000000000000000000000000000000000000000000000000600052602260045260246000fd5b600060028204905060018216806121eb57607f821691505b602082108114156121ff576121fe6121a4565b5b50919050565b7f4552433732313a20617070726f76616c20746f2063757272656e74206f776e6560008201527f7200000000000000000000000000000000000000000000000000000000000000602082015250565b6000612261602183611bd1565b915061226c82612205565b604082019050919050565b6000602082019050818103600083015261229081612254565b9050919050565b7f4552433732313a20617070726f76652063616c6c6572206973206e6f7420746f60008201527f6b656e206f776e6572206e6f7220617070726f76656420666f7220616c6c0000602082015250565b60006122f3603e83611bd1565b91506122fe82612297565b604082019050919050565b60006020820190508181036000830152612322816122e6565b9050919050565b7f4552433732313a2063616c6c6572206973206e6f7420746f6b656e206f776e6560008201527f72206e6f7220617070726f766564000000000000000000000000000000000000602082015250565b6000612385602e83611bd1565b915061239082612329565b604082019050919050565b600060208201905081810360008301526123b481612378565b9050919050565b7f4552433732313a20696e76616c696420746f6b656e2049440000000000000000600082015250565b60006123f1601883611bd1565b91506123fc826123bb565b602082019050919050565b60006020820190508181036000830152612420816123e4565b9050919050565b7f4552433732313a2061646472657373207a65726f206973206e6f74206120766160008201527f6c6964206f776e65720000000000000000000000000000000000000000000000602082015250565b6000612483602983611bd1565b915061248e82612427565b604082019050919050565b600060208201905081810360008301526124b281612476565b9050919050565b7f4f776e61626c653a206e6577206f776e657220697320746865207a65726f206160008201527f6464726573730000000000000000000000000000000000000000000000000000602082015250565b6000612515602683611bd1565b9150612520826124b9565b604082019050919050565b6000602082019050818103600083015261254481612508565b9050919050565b7f4552433732313a207472616e736665722066726f6d20696e636f72726563742060008201527f6f776e6572000000000000000000000000000000000000000000000000000000602082015250565b60006125a7602583611bd1565b91506125b28261254b565b604082019050919050565b600060208201905081810360008301526125d68161259a565b9050919050565b7f4552433732313a207472616e7366657220746f20746865207a65726f2061646460008201527f7265737300000000000000000000000000000000000000000000000000000000602082015250565b6000612639602483611bd1565b9150612644826125dd565b604082019050919050565b600060208201905081810360008301526126688161262c565b9050919050565b7f4e487b7100000000000000000000000000000000000000000000000000000000600052601160045260246000fd5b60006126a982611c81565b91506126b483611c81565b9250828210156126c7576126c661266f565b5b828203905092915050565b60006126dd82611c81565b91506126e883611c81565b9250827fffffffffffffffffffffffffffffffffffffffffffffffffffffffffffffffff0382111561271d5761271c61266f565b5b828201905092915050565b7f4f776e61626c653a2063616c6c6572206973206e6f7420746865206f776e6572600082015250565b600061275e602083611bd1565b915061276982612728565b602082019050919050565b6000602082019050818103600083015261278d81612751565b9050919050565b7f4552433732313a20617070726f766520746f2063616c6c657200000000000000600082015250565b60006127ca601983611bd1565b91506127d582612794565b602082019050919050565b600060208201905081810360008301526127f9816127bd565b9050919050565b7f4552433732313a207472616e7366657220746f206e6f6e20455243373231526560008201527f63656976657220696d706c656d656e7465720000000000000000000000000000602082015250565b600061285c603283611bd1565b915061286782612800565b604082019050919050565b6000602082019050818103600083015261288b8161284f565b9050919050565b600081905092915050565b60006128a882611bc6565b6128b28185612892565b93506128c2818560208601611be2565b80840191505092915050565b60006128da828561289d565b91506128e6828461289d565b91508190509392505050565b7f45524337323155524953746f726167653a2055524920736574206f66206e6f6e60008201527f6578697374656e7420746f6b656e000000000000000000000000000000000000602082015250565b600061294e602e83611bd1565b9150612959826128f2565b604082019050919050565b6000602082019050818103600083015261297d81612941565b9050919050565b600081519050919050565b600082825260208201905092915050565b60006129ab82612984565b6129b5818561298f565b93506129c5818560208601611be2565b6129ce81611c15565b840191505092915050565b60006080820190506129ee6000830187611d16565b6129fb6020830186611d16565b612a086040830185611e2c565b8181036060830152612a1a81846129a0565b905095945050505050565b600081519050612a3481611b37565b92915050565b600060208284031215612a5057612a4f611b01565b5b6000612a5e84828501612a25565b91505092915050565b6000612a7282611c81565b91507fffffffffffffffffffffffffffffffffffffffffffffffffffffffffffffffff821415612aa557612aa461266f565b5b600182019050919050565b7f4e487b7100000000000000000000000000000000000000000000000000000000600052601260045260246000fd5b6000612aea82611c81565b9150612af583611c81565b925082612b0557612b04612ab0565b5b828204905092915050565b6000612b1b82611c81565b9150612b2683611c81565b925082612b3657612b35612ab0565b5b828206905092915050565b7f4e487b7100000000000000000000000000000000000000000000000000000000600052603260045260246000fd5b7f4552433732313a206d696e7420746f20746865207a65726f2061646472657373600082015250565b6000612ba6602083611bd1565b9150612bb182612b70565b602082019050919050565b60006020820190508181036000830152612bd581612b99565b9050919050565b7f4552433732313a20746f6b656e20616c7265616479206d696e74656400000000600082015250565b6000612c12601c83611bd1565b9150612c1d82612bdc565b602082019050919050565b60006020820190508181036000830152612c4181612c05565b905091905056fea264697066735822122047bbb943042a59061d554a8321bc0811d60806ed8ae9cc4f8b4f6b422b1c488e64736f6c63430008090033",
  "devdoc": {
    "kind": "dev",
    "methods": {
      "approve(address,uint256)": {
        "details": "See {IERC721-approve}."
      },
      "balanceOf(address)": {
        "details": "See {IERC721-balanceOf}."
      },
      "getApproved(uint256)": {
        "details": "See {IERC721-getApproved}."
      },
      "isApprovedForAll(address,address)": {
        "details": "See {IERC721-isApprovedForAll}."
      },
      "name()": {
        "details": "See {IERC721Metadata-name}."
      },
      "owner()": {
        "details": "Returns the address of the current owner."
      },
      "ownerOf(uint256)": {
        "details": "See {IERC721-ownerOf}."
      },
      "renounceOwnership()": {
        "details": "Leaves the contract without owner. It will not be possible to call `onlyOwner` functions anymore. Can only be called by the current owner. NOTE: Renouncing ownership will leave the contract without an owner, thereby removing any functionality that is only available to the owner."
      },
      "safeTransferFrom(address,address,uint256)": {
        "details": "See {IERC721-safeTransferFrom}."
      },
      "safeTransferFrom(address,address,uint256,bytes)": {
        "details": "See {IERC721-safeTransferFrom}."
      },
      "setApprovalForAll(address,bool)": {
        "details": "See {IERC721-setApprovalForAll}."
      },
      "supportsInterface(bytes4)": {
        "details": "See {IERC165-supportsInterface}."
      },
      "symbol()": {
        "details": "See {IERC721Metadata-symbol}."
      },
      "transferFrom(address,address,uint256)": {
        "details": "See {IERC721-transferFrom}."
      },
      "transferOwnership(address)": {
        "details": "Transfers ownership of the contract to a new account (`newOwner`). Can only be called by the current owner."
      }
    },
    "version": 1
  },
  "userdoc": {
    "kind": "user",
    "methods": {},
    "version": 1
  },
  "storageLayout": {
    "storage": [
      {
        "astId": 138,
        "contract": "contracts/BabyNFT.sol:BabyNFT",
        "label": "_name",
        "offset": 0,
        "slot": "0",
        "type": "t_string_storage"
      },
      {
        "astId": 140,
        "contract": "contracts/BabyNFT.sol:BabyNFT",
        "label": "_symbol",
        "offset": 0,
        "slot": "1",
        "type": "t_string_storage"
      },
      {
        "astId": 144,
        "contract": "contracts/BabyNFT.sol:BabyNFT",
        "label": "_owners",
        "offset": 0,
        "slot": "2",
        "type": "t_mapping(t_uint256,t_address)"
      },
      {
        "astId": 148,
        "contract": "contracts/BabyNFT.sol:BabyNFT",
        "label": "_balances",
        "offset": 0,
        "slot": "3",
        "type": "t_mapping(t_address,t_uint256)"
      },
      {
        "astId": 152,
        "contract": "contracts/BabyNFT.sol:BabyNFT",
        "label": "_tokenApprovals",
        "offset": 0,
        "slot": "4",
        "type": "t_mapping(t_uint256,t_address)"
      },
      {
        "astId": 158,
        "contract": "contracts/BabyNFT.sol:BabyNFT",
        "label": "_operatorApprovals",
        "offset": 0,
        "slot": "5",
        "type": "t_mapping(t_address,t_mapping(t_address,t_bool))"
      },
      {
        "astId": 1126,
        "contract": "contracts/BabyNFT.sol:BabyNFT",
        "label": "_tokenURIs",
        "offset": 0,
        "slot": "6",
        "type": "t_mapping(t_uint256,t_string_storage)"
      },
      {
        "astId": 7,
        "contract": "contracts/BabyNFT.sol:BabyNFT",
        "label": "_owner",
        "offset": 0,
        "slot": "7",
        "type": "t_address"
      },
      {
        "astId": 1989,
        "contract": "contracts/BabyNFT.sol:BabyNFT",
        "label": "_totalMinted",
        "offset": 0,
        "slot": "8",
        "type": "t_struct(Counter)1635_storage"
      }
    ],
    "types": {
      "t_address": {
        "encoding": "inplace",
        "label": "address",
        "numberOfBytes": "20"
      },
      "t_bool": {
        "encoding": "inplace",
        "label": "bool",
        "numberOfBytes": "1"
      },
      "t_mapping(t_address,t_bool)": {
        "encoding": "mapping",
        "key": "t_address",
        "label": "mapping(address => bool)",
        "numberOfBytes": "32",
        "value": "t_bool"
      },
      "t_mapping(t_address,t_mapping(t_address,t_bool))": {
        "encoding": "mapping",
        "key": "t_address",
        "label": "mapping(address => mapping(address => bool))",
        "numberOfBytes": "32",
        "value": "t_mapping(t_address,t_bool)"
      },
      "t_mapping(t_address,t_uint256)": {
        "encoding": "mapping",
        "key": "t_address",
        "label": "mapping(address => uint256)",
        "numberOfBytes": "32",
        "value": "t_uint256"
      },
      "t_mapping(t_uint256,t_address)": {
        "encoding": "mapping",
        "key": "t_uint256",
        "label": "mapping(uint256 => address)",
        "numberOfBytes": "32",
        "value": "t_address"
      },
      "t_mapping(t_uint256,t_string_storage)": {
        "encoding": "mapping",
        "key": "t_uint256",
        "label": "mapping(uint256 => string)",
        "numberOfBytes": "32",
        "value": "t_string_storage"
      },
      "t_string_storage": {
        "encoding": "bytes",
        "label": "string",
        "numberOfBytes": "32"
      },
      "t_struct(Counter)1635_storage": {
        "encoding": "inplace",
        "label": "struct Counters.Counter",
        "members": [
          {
            "astId": 1634,
            "contract": "contracts/BabyNFT.sol:BabyNFT",
            "label": "_value",
            "offset": 0,
            "slot": "0",
            "type": "t_uint256"
          }
        ],
        "numberOfBytes": "32"
      },
      "t_uint256": {
        "encoding": "inplace",
        "label": "uint256",
        "numberOfBytes": "32"
      }
    }
  }
}