{
  "_format": "hh-sol-artifact-1",
  "contractName": "BabyNFT",
  "sourceName": "contracts/BabyNFT.sol",
  "abi": [
    {
      "inputs": [],
      "stateMutability": "nonpayable",
      "type": "constructor"
    },
    {
      "anonymous": false,
      "inputs": [
        {
          "indexed": true,
          "internalType": "address",
          "name": "owner",
          "type": "address"
        },
        {
          "indexed": true,
          "internalType": "address",
          "name": "approved",
          "type": "address"
        },
        {
          "indexed": true,
          "internalType": "uint256",
          "name": "tokenId",
          "type": "uint256"
        }
      ],
      "name": "Approval",
      "type": "event"
    },
    {
      "anonymous": false,
      "inputs": [
        {
          "indexed": true,
          "internalType": "address",
          "name": "owner",
          "type": "address"
        },
        {
          "indexed": true,
          "internalType": "address",
          "name": "operator",
          "type": "address"
        },
        {
          "indexed": false,
          "internalType": "bool",
          "name": "approved",
          "type": "bool"
        }
      ],
      "name": "ApprovalForAll",
      "type": "event"
    },
    {
      "anonymous": false,
      "inputs": [
        {
          "indexed": true,
          "internalType": "address",
          "name": "previousOwner",
          "type": "address"
        },
        {
          "indexed": true,
          "internalType": "address",
          "name": "newOwner",
          "type": "address"
        }
      ],
      "name": "OwnershipTransferred",
      "type": "event"
    },
    {
      "anonymous": false,
      "inputs": [
        {
          "indexed": true,
          "internalType": "address",
          "name": "from",
          "type": "address"
        },
        {
          "indexed": true,
          "internalType": "address",
          "name": "to",
          "type": "address"
        },
        {
          "indexed": true,
          "internalType": "uint256",
          "name": "tokenId",
          "type": "uint256"
        }
      ],
      "name": "Transfer",
      "type": "event"
    },
    {
      "inputs": [
        {
          "internalType": "address",
          "name": "to",
          "type": "address"
        },
        {
          "internalType": "uint256",
          "name": "tokenId",
          "type": "uint256"
        }
      ],
      "name": "approve",
      "outputs": [],
      "stateMutability": "nonpayable",
      "type": "function"
    },
    {
      "inputs": [
        {
          "internalType": "address",
          "name": "owner",
          "type": "address"
        }
      ],
      "name": "balanceOf",
      "outputs": [
        {
          "internalType": "uint256",
          "name": "",
          "type": "uint256"
        }
      ],
      "stateMutability": "view",
      "type": "function"
    },
    {
      "inputs": [
        {
          "internalType": "uint256",
          "name": "tokenId",
          "type": "uint256"
        }
      ],
      "name": "burn",
      "outputs": [],
      "stateMutability": "nonpayable",
      "type": "function"
    },
    {
      "inputs": [
        {
          "internalType": "uint256",
          "name": "tokenId",
          "type": "uint256"
        }
      ],
      "name": "getApproved",
      "outputs": [
        {
          "internalType": "address",
          "name": "",
          "type": "address"
        }
      ],
      "stateMutability": "view",
      "type": "function"
    },
    {
      "inputs": [
        {
          "internalType": "address",
          "name": "owner",
          "type": "address"
        },
        {
          "internalType": "address",
          "name": "operator",
          "type": "address"
        }
      ],
      "name": "isApprovedForAll",
      "outputs": [
        {
          "internalType": "bool",
          "name": "",
          "type": "bool"
        }
      ],
      "stateMutability": "view",
      "type": "function"
    },
    {
      "inputs": [
        {
          "internalType": "string",
          "name": "uRI",
          "type": "string"
        }
      ],
      "name": "mint",
      "outputs": [],
      "stateMutability": "nonpayable",
      "type": "function"
    },
    {
      "inputs": [],
      "name": "name",
      "outputs": [
        {
          "internalType": "string",
          "name": "",
          "type": "string"
        }
      ],
      "stateMutability": "view",
      "type": "function"
    },
    {
      "inputs": [],
      "name": "owner",
      "outputs": [
        {
          "internalType": "address",
          "name": "",
          "type": "address"
        }
      ],
      "stateMutability": "view",
      "type": "function"
    },
    {
      "inputs": [
        {
          "internalType": "uint256",
          "name": "tokenId",
          "type": "uint256"
        }
      ],
      "name": "ownerOf",
      "outputs": [
        {
          "internalType": "address",
          "name": "",
          "type": "address"
        }
      ],
      "stateMutability": "view",
      "type": "function"
    },
    {
      "inputs": [],
      "name": "renounceOwnership",
      "outputs": [],
      "stateMutability": "nonpayable",
      "type": "function"
    },
    {
      "inputs": [
        {
          "internalType": "address",
          "name": "from",
          "type": "address"
        },
        {
          "internalType": "address",
          "name": "to",
          "type": "address"
        },
        {
          "internalType": "uint256",
          "name": "tokenId",
          "type": "uint256"
        }
      ],
      "name": "safeTransferFrom",
      "outputs": [],
      "stateMutability": "nonpayable",
      "type": "function"
    },
    {
      "inputs": [
        {
          "internalType": "address",
          "name": "from",
          "type": "address"
        },
        {
          "internalType": "address",
          "name": "to",
          "type": "address"
        },
        {
          "internalType": "uint256",
          "name": "tokenId",
          "type": "uint256"
        },
        {
          "internalType": "bytes",
          "name": "data",
          "type": "bytes"
        }
      ],
      "name": "safeTransferFrom",
      "outputs": [],
      "stateMutability": "nonpayable",
      "type": "function"
    },
    {
      "inputs": [
        {
          "internalType": "address",
          "name": "operator",
          "type": "address"
        },
        {
          "internalType": "bool",
          "name": "approved",
          "type": "bool"
        }
      ],
      "name": "setApprovalForAll",
      "outputs": [],
      "stateMutability": "nonpayable",
      "type": "function"
    },
    {
      "inputs": [
        {
          "internalType": "bytes4",
          "name": "interfaceId",
          "type": "bytes4"
        }
      ],
      "name": "supportsInterface",
      "outputs": [
        {
          "internalType": "bool",
          "name": "",
          "type": "bool"
        }
      ],
      "stateMutability": "view",
      "type": "function"
    },
    {
      "inputs": [],
      "name": "symbol",
      "outputs": [
        {
          "internalType": "string",
          "name": "",
          "type": "string"
        }
      ],
      "stateMutability": "view",
      "type": "function"
    },
    {
      "inputs": [
        {
          "internalType": "uint256",
          "name": "tokenId",
          "type": "uint256"
        }
      ],
      "name": "tokenURI",
      "outputs": [
        {
          "internalType": "string",
          "name": "",
          "type": "string"
        }
      ],
      "stateMutability": "view",
      "type": "function"
    },
    {
      "inputs": [
        {
          "internalType": "address",
          "name": "from",
          "type": "address"
        },
        {
          "internalType": "address",
          "name": "to",
          "type": "address"
        },
        {
          "internalType": "uint256",
          "name": "tokenId",
          "type": "uint256"
        }
      ],
      "name": "transferFrom",
      "outputs": [],
      "stateMutability": "nonpayable",
      "type": "function"
    },
    {
      "inputs": [
        {
          "internalType": "address",
          "name": "newOwner",
          "type": "address"
        }
      ],
      "name": "transferOwnership",
      "outputs": [],
      "stateMutability": "nonpayable",
      "type": "function"
    }
  ],
  "bytecode": "0x60806040523480156200001157600080fd5b506040518060400160405280600b81526020017f42616279204e617468616e0000000000000000000000000000000000000000008152506040518060400160405280600481526020017f424e465400000000000000000000000000000000000000000000000000000000815250816000908051906020019062000096929190620001ae565b508060019080519060200190620000af929190620001ae565b505050620000d2620000c6620000e060201b60201c565b620000e860201b60201c565b6001600881905550620002c3565b600033905090565b6000600760009054906101000a900473ffffffffffffffffffffffffffffffffffffffff16905081600760006101000a81548173ffffffffffffffffffffffffffffffffffffffff021916908373ffffffffffffffffffffffffffffffffffffffff1602179055508173ffffffffffffffffffffffffffffffffffffffff168173ffffffffffffffffffffffffffffffffffffffff167f8be0079c531659141344cd1fd0a4f28419497f9722a3daafe3b4186f6b6457e060405160405180910390a35050565b828054620001bc906200028d565b90600052602060002090601f016020900481019282620001e057600085556200022c565b82601f10620001fb57805160ff19168380011785556200022c565b828001600101855582156200022c579182015b828111156200022b5782518255916020019190600101906200020e565b5b5090506200023b91906200023f565b5090565b5b808211156200025a57600081600090555060010162000240565b5090565b7f4e487b7100000000000000000000000000000000000000000000000000000000600052602260045260246000fd5b60006002820490506001821680620002a657607f821691505b60208210811415620002bd57620002bc6200025e565b5b50919050565b612f8d80620002d36000396000f3fe608060405234801561001057600080fd5b50600436106101165760003560e01c8063715018a6116100a2578063b88d4fde11610071578063b88d4fde146102cb578063c87b56dd146102e7578063d85d3d2714610317578063e985e9c514610333578063f2fde38b1461036357610116565b8063715018a6146102695780638da5cb5b1461027357806395d89b4114610291578063a22cb465146102af57610116565b806323b872dd116100e957806323b872dd146101b557806342842e0e146101d157806342966c68146101ed5780636352211e1461020957806370a082311461023957610116565b806301ffc9a71461011b57806306fdde031461014b578063081812fc14610169578063095ea7b314610199575b600080fd5b61013560048036038101906101309190611e06565b61037f565b6040516101429190611e4e565b60405180910390f35b610153610461565b6040516101609190611f02565b60405180910390f35b610183600480360381019061017e9190611f5a565b6104f3565b6040516101909190611fc8565b60405180910390f35b6101b360048036038101906101ae919061200f565b610539565b005b6101cf60048036038101906101ca919061204f565b610651565b005b6101eb60048036038101906101e6919061204f565b6106b1565b005b61020760048036038101906102029190611f5a565b6106d1565b005b610223600480360381019061021e9190611f5a565b61073b565b6040516102309190611fc8565b60405180910390f35b610253600480360381019061024e91906120a2565b6107ed565b60405161026091906120de565b60405180910390f35b6102716108a5565b005b61027b6108b9565b6040516102889190611fc8565b60405180910390f35b6102996108e3565b6040516102a69190611f02565b60405180910390f35b6102c960048036038101906102c49190612125565b610975565b005b6102e560048036038101906102e0919061229a565b61098b565b005b61030160048036038101906102fc9190611f5a565b6109ed565b60405161030e9190611f02565b60405180910390f35b610331600480360381019061032c91906123be565b6109ff565b005b61034d60048036038101906103489190612407565b610a96565b60405161035a9190611e4e565b60405180910390f35b61037d600480360381019061037891906120a2565b610b2a565b005b60007f80ac58cd000000000000000000000000000000000000000000000000000000007bffffffffffffffffffffffffffffffffffffffffffffffffffffffff1916827bffffffffffffffffffffffffffffffffffffffffffffffffffffffff1916148061044a57507f5b5e139f000000000000000000000000000000000000000000000000000000007bffffffffffffffffffffffffffffffffffffffffffffffffffffffff1916827bffffffffffffffffffffffffffffffffffffffffffffffffffffffff1916145b8061045a575061045982610bae565b5b9050919050565b60606000805461047090612476565b80601f016020809104026020016040519081016040528092919081815260200182805461049c90612476565b80156104e95780601f106104be576101008083540402835291602001916104e9565b820191906000526020600020905b8154815290600101906020018083116104cc57829003601f168201915b5050505050905090565b60006104fe82610c18565b6004600083815260200190815260200160002060009054906101000a900473ffffffffffffffffffffffffffffffffffffffff169050919050565b60006105448261073b565b90508073ffffffffffffffffffffffffffffffffffffffff168373ffffffffffffffffffffffffffffffffffffffff1614156105b5576040517f08c379a00000000000000000000000000000000000000000000000000000000081526004016105ac9061251a565b60405180910390fd5b8073ffffffffffffffffffffffffffffffffffffffff166105d4610c63565b73ffffffffffffffffffffffffffffffffffffffff1614806106035750610602816105fd610c63565b610a96565b5b610642576040517f08c379a0000000000000000000000000000000000000000000000000000000008152600401610639906125ac565b60405180910390fd5b61064c8383610c6b565b505050565b61066261065c610c63565b82610d24565b6106a1576040517f08c379a00000000000000000000000000000000000000000000000000000000081526004016106989061263e565b60405180910390fd5b6106ac838383610db9565b505050565b6106cc8383836040518060200160405280600081525061098b565b505050565b6106d9611020565b6002600854141561071f576040517f08c379a0000000000000000000000000000000000000000000000000000000008152600401610716906126aa565b60405180910390fd5b60026008819055506107308161109e565b600160088190555050565b6000806002600084815260200190815260200160002060009054906101000a900473ffffffffffffffffffffffffffffffffffffffff169050600073ffffffffffffffffffffffffffffffffffffffff168173ffffffffffffffffffffffffffffffffffffffff1614156107e4576040517f08c379a00000000000000000000000000000000000000000000000000000000081526004016107db90612716565b60405180910390fd5b80915050919050565b60008073ffffffffffffffffffffffffffffffffffffffff168273ffffffffffffffffffffffffffffffffffffffff16141561085e576040517f08c379a0000000000000000000000000000000000000000000000000000000008152600401610855906127a8565b60405180910390fd5b600360008373ffffffffffffffffffffffffffffffffffffffff1673ffffffffffffffffffffffffffffffffffffffff168152602001908152602001600020549050919050565b6108ad611020565b6108b760006110aa565b565b6000600760009054906101000a900473ffffffffffffffffffffffffffffffffffffffff16905090565b6060600180546108f290612476565b80601f016020809104026020016040519081016040528092919081815260200182805461091e90612476565b801561096b5780601f106109405761010080835404028352916020019161096b565b820191906000526020600020905b81548152906001019060200180831161094e57829003601f168201915b5050505050905090565b610987610980610c63565b8383611170565b5050565b61099c610996610c63565b83610d24565b6109db576040517f08c379a00000000000000000000000000000000000000000000000000000000081526004016109d29061263e565b60405180910390fd5b6109e7848484846112dd565b50505050565b60606109f882611339565b9050919050565b610a07611020565b60026008541415610a4d576040517f08c379a0000000000000000000000000000000000000000000000000000000008152600401610a44906126aa565b60405180910390fd5b6002600881905550610a5f600961144c565b6000610a6b6009611462565b9050610a773382611470565b610a8a610a846009611462565b8361148e565b50600160088190555050565b6000600560008473ffffffffffffffffffffffffffffffffffffffff1673ffffffffffffffffffffffffffffffffffffffff16815260200190815260200160002060008373ffffffffffffffffffffffffffffffffffffffff1673ffffffffffffffffffffffffffffffffffffffff16815260200190815260200160002060009054906101000a900460ff16905092915050565b610b32611020565b600073ffffffffffffffffffffffffffffffffffffffff168173ffffffffffffffffffffffffffffffffffffffff161415610ba2576040517f08c379a0000000000000000000000000000000000000000000000000000000008152600401610b999061283a565b60405180910390fd5b610bab816110aa565b50565b60007f01ffc9a7000000000000000000000000000000000000000000000000000000007bffffffffffffffffffffffffffffffffffffffffffffffffffffffff1916827bffffffffffffffffffffffffffffffffffffffffffffffffffffffff1916149050919050565b610c2181611502565b610c60576040517f08c379a0000000000000000000000000000000000000000000000000000000008152600401610c5790612716565b60405180910390fd5b50565b600033905090565b816004600083815260200190815260200160002060006101000a81548173ffffffffffffffffffffffffffffffffffffffff021916908373ffffffffffffffffffffffffffffffffffffffff160217905550808273ffffffffffffffffffffffffffffffffffffffff16610cde8361073b565b73ffffffffffffffffffffffffffffffffffffffff167f8c5be1e5ebec7d5bd14f71427d1e84f3dd0314c0f7b2291e5b200ac8c7c3b92560405160405180910390a45050565b600080610d308361073b565b90508073ffffffffffffffffffffffffffffffffffffffff168473ffffffffffffffffffffffffffffffffffffffff161480610d725750610d718185610a96565b5b80610db057508373ffffffffffffffffffffffffffffffffffffffff16610d98846104f3565b73ffffffffffffffffffffffffffffffffffffffff16145b91505092915050565b8273ffffffffffffffffffffffffffffffffffffffff16610dd98261073b565b73ffffffffffffffffffffffffffffffffffffffff1614610e2f576040517f08c379a0000000000000000000000000000000000000000000000000000000008152600401610e26906128cc565b60405180910390fd5b600073ffffffffffffffffffffffffffffffffffffffff168273ffffffffffffffffffffffffffffffffffffffff161415610e9f576040517f08c379a0000000000000000000000000000000000000000000000000000000008152600401610e969061295e565b60405180910390fd5b610eaa83838361156e565b610eb5600082610c6b565b6001600360008573ffffffffffffffffffffffffffffffffffffffff1673ffffffffffffffffffffffffffffffffffffffff1681526020019081526020016000206000828254610f0591906129ad565b925050819055506001600360008473ffffffffffffffffffffffffffffffffffffffff1673ffffffffffffffffffffffffffffffffffffffff1681526020019081526020016000206000828254610f5c91906129e1565b92505081905550816002600083815260200190815260200160002060006101000a81548173ffffffffffffffffffffffffffffffffffffffff021916908373ffffffffffffffffffffffffffffffffffffffff160217905550808273ffffffffffffffffffffffffffffffffffffffff168473ffffffffffffffffffffffffffffffffffffffff167fddf252ad1be2c89b69c2b068fc378daa952ba7f163c4a11628f55a4df523b3ef60405160405180910390a461101b838383611573565b505050565b611028610c63565b73ffffffffffffffffffffffffffffffffffffffff166110466108b9565b73ffffffffffffffffffffffffffffffffffffffff161461109c576040517f08c379a000000000000000000000000000000000000000000000000000000000815260040161109390612a83565b60405180910390fd5b565b6110a781611578565b50565b6000600760009054906101000a900473ffffffffffffffffffffffffffffffffffffffff16905081600760006101000a81548173ffffffffffffffffffffffffffffffffffffffff021916908373ffffffffffffffffffffffffffffffffffffffff1602179055508173ffffffffffffffffffffffffffffffffffffffff168173ffffffffffffffffffffffffffffffffffffffff167f8be0079c531659141344cd1fd0a4f28419497f9722a3daafe3b4186f6b6457e060405160405180910390a35050565b8173ffffffffffffffffffffffffffffffffffffffff168373ffffffffffffffffffffffffffffffffffffffff1614156111df576040517f08c379a00000000000000000000000000000000000000000000000000000000081526004016111d690612aef565b60405180910390fd5b80600560008573ffffffffffffffffffffffffffffffffffffffff1673ffffffffffffffffffffffffffffffffffffffff16815260200190815260200160002060008473ffffffffffffffffffffffffffffffffffffffff1673ffffffffffffffffffffffffffffffffffffffff16815260200190815260200160002060006101000a81548160ff0219169083151502179055508173ffffffffffffffffffffffffffffffffffffffff168373ffffffffffffffffffffffffffffffffffffffff167f17307eab39ab6107e8899845ad3d59bd9653f200f220920489ca2b5937696c31836040516112d09190611e4e565b60405180910390a3505050565b6112e8848484610db9565b6112f4848484846115cb565b611333576040517f08c379a000000000000000000000000000000000000000000000000000000000815260040161132a90612b81565b60405180910390fd5b50505050565b606061134482610c18565b600060066000848152602001908152602001600020805461136490612476565b80601f016020809104026020016040519081016040528092919081815260200182805461139090612476565b80156113dd5780601f106113b2576101008083540402835291602001916113dd565b820191906000526020600020905b8154815290600101906020018083116113c057829003601f168201915b5050505050905060006113ee611762565b9050600081511415611404578192505050611447565b600082511115611439578082604051602001611421929190612bdd565b60405160208183030381529060405292505050611447565b61144284611779565b925050505b919050565b6001816000016000828254019250508190555050565b600081600001549050919050565b61148a8282604051806020016040528060008152506117e1565b5050565b61149782611502565b6114d6576040517f08c379a00000000000000000000000000000000000000000000000000000000081526004016114cd90612c73565b60405180910390fd5b806006600084815260200190815260200160002090805190602001906114fd929190611cb7565b505050565b60008073ffffffffffffffffffffffffffffffffffffffff166002600084815260200190815260200160002060009054906101000a900473ffffffffffffffffffffffffffffffffffffffff1673ffffffffffffffffffffffffffffffffffffffff1614159050919050565b505050565b505050565b6115818161183c565b60006006600083815260200190815260200160002080546115a190612476565b9050146115c8576006600082815260200190815260200160002060006115c79190611d3d565b5b50565b60006115ec8473ffffffffffffffffffffffffffffffffffffffff16611959565b15611755578373ffffffffffffffffffffffffffffffffffffffff1663150b7a02611615610c63565b8786866040518563ffffffff1660e01b81526004016116379493929190612ce8565b602060405180830381600087803b15801561165157600080fd5b505af192505050801561168257506040513d601f19601f8201168201806040525081019061167f9190612d49565b60015b611705573d80600081146116b2576040519150601f19603f3d011682016040523d82523d6000602084013e6116b7565b606091505b506000815114156116fd576040517f08c379a00000000000000000000000000000000000000000000000000000000081526004016116f490612b81565b60405180910390fd5b805181602001fd5b63150b7a0260e01b7bffffffffffffffffffffffffffffffffffffffffffffffffffffffff1916817bffffffffffffffffffffffffffffffffffffffffffffffffffffffff19161491505061175a565b600190505b949350505050565b606060405180602001604052806000815250905090565b606061178482610c18565b600061178e611762565b905060008151116117ae57604051806020016040528060008152506117d9565b806117b88461197c565b6040516020016117c9929190612bdd565b6040516020818303038152906040525b915050919050565b6117eb8383611add565b6117f860008484846115cb565b611837576040517f08c379a000000000000000000000000000000000000000000000000000000000815260040161182e90612b81565b60405180910390fd5b505050565b60006118478261073b565b90506118558160008461156e565b611860600083610c6b565b6001600360008373ffffffffffffffffffffffffffffffffffffffff1673ffffffffffffffffffffffffffffffffffffffff16815260200190815260200160002060008282546118b091906129ad565b925050819055506002600083815260200190815260200160002060006101000a81549073ffffffffffffffffffffffffffffffffffffffff021916905581600073ffffffffffffffffffffffffffffffffffffffff168273ffffffffffffffffffffffffffffffffffffffff167fddf252ad1be2c89b69c2b068fc378daa952ba7f163c4a11628f55a4df523b3ef60405160405180910390a461195581600084611573565b5050565b6000808273ffffffffffffffffffffffffffffffffffffffff163b119050919050565b606060008214156119c4576040518060400160405280600181526020017f30000000000000000000000000000000000000000000000000000000000000008152509050611ad8565b600082905060005b600082146119f65780806119df90612d76565b915050600a826119ef9190612dee565b91506119cc565b60008167ffffffffffffffff811115611a1257611a1161216f565b5b6040519080825280601f01601f191660200182016040528015611a445781602001600182028036833780820191505090505b5090505b60008514611ad157600182611a5d91906129ad565b9150600a85611a6c9190612e1f565b6030611a7891906129e1565b60f81b818381518110611a8e57611a8d612e50565b5b60200101907effffffffffffffffffffffffffffffffffffffffffffffffffffffffffffff1916908160001a905350600a85611aca9190612dee565b9450611a48565b8093505050505b919050565b600073ffffffffffffffffffffffffffffffffffffffff168273ffffffffffffffffffffffffffffffffffffffff161415611b4d576040517f08c379a0000000000000000000000000000000000000000000000000000000008152600401611b4490612ecb565b60405180910390fd5b611b5681611502565b15611b96576040517f08c379a0000000000000000000000000000000000000000000000000000000008152600401611b8d90612f37565b60405180910390fd5b611ba26000838361156e565b6001600360008473ffffffffffffffffffffffffffffffffffffffff1673ffffffffffffffffffffffffffffffffffffffff1681526020019081526020016000206000828254611bf291906129e1565b92505081905550816002600083815260200190815260200160002060006101000a81548173ffffffffffffffffffffffffffffffffffffffff021916908373ffffffffffffffffffffffffffffffffffffffff160217905550808273ffffffffffffffffffffffffffffffffffffffff16600073ffffffffffffffffffffffffffffffffffffffff167fddf252ad1be2c89b69c2b068fc378daa952ba7f163c4a11628f55a4df523b3ef60405160405180910390a4611cb360008383611573565b5050565b828054611cc390612476565b90600052602060002090601f016020900481019282611ce55760008555611d2c565b82601f10611cfe57805160ff1916838001178555611d2c565b82800160010185558215611d2c579182015b82811115611d2b578251825591602001919060010190611d10565b5b509050611d399190611d7d565b5090565b508054611d4990612476565b6000825580601f10611d5b5750611d7a565b601f016020900490600052602060002090810190611d799190611d7d565b5b50565b5b80821115611d96576000816000905550600101611d7e565b5090565b6000604051905090565b600080fd5b600080fd5b60007fffffffff0000000000000000000000000000000000000000000000000000000082169050919050565b611de381611dae565b8114611dee57600080fd5b50565b600081359050611e0081611dda565b92915050565b600060208284031215611e1c57611e1b611da4565b5b6000611e2a84828501611df1565b91505092915050565b60008115159050919050565b611e4881611e33565b82525050565b6000602082019050611e636000830184611e3f565b92915050565b600081519050919050565b600082825260208201905092915050565b60005b83811015611ea3578082015181840152602081019050611e88565b83811115611eb2576000848401525b50505050565b6000601f19601f8301169050919050565b6000611ed482611e69565b611ede8185611e74565b9350611eee818560208601611e85565b611ef781611eb8565b840191505092915050565b60006020820190508181036000830152611f1c8184611ec9565b905092915050565b6000819050919050565b611f3781611f24565b8114611f4257600080fd5b50565b600081359050611f5481611f2e565b92915050565b600060208284031215611f7057611f6f611da4565b5b6000611f7e84828501611f45565b91505092915050565b600073ffffffffffffffffffffffffffffffffffffffff82169050919050565b6000611fb282611f87565b9050919050565b611fc281611fa7565b82525050565b6000602082019050611fdd6000830184611fb9565b92915050565b611fec81611fa7565b8114611ff757600080fd5b50565b60008135905061200981611fe3565b92915050565b6000806040838503121561202657612025611da4565b5b600061203485828601611ffa565b925050602061204585828601611f45565b9150509250929050565b60008060006060848603121561206857612067611da4565b5b600061207686828701611ffa565b935050602061208786828701611ffa565b925050604061209886828701611f45565b9150509250925092565b6000602082840312156120b8576120b7611da4565b5b60006120c684828501611ffa565b91505092915050565b6120d881611f24565b82525050565b60006020820190506120f360008301846120cf565b92915050565b61210281611e33565b811461210d57600080fd5b50565b60008135905061211f816120f9565b92915050565b6000806040838503121561213c5761213b611da4565b5b600061214a85828601611ffa565b925050602061215b85828601612110565b9150509250929050565b600080fd5b600080fd5b7f4e487b7100000000000000000000000000000000000000000000000000000000600052604160045260246000fd5b6121a782611eb8565b810181811067ffffffffffffffff821117156121c6576121c561216f565b5b80604052505050565b60006121d9611d9a565b90506121e5828261219e565b919050565b600067ffffffffffffffff8211156122055761220461216f565b5b61220e82611eb8565b9050602081019050919050565b82818337600083830152505050565b600061223d612238846121ea565b6121cf565b9050828152602081018484840111156122595761225861216a565b5b61226484828561221b565b509392505050565b600082601f83011261228157612280612165565b5b813561229184826020860161222a565b91505092915050565b600080600080608085870312156122b4576122b3611da4565b5b60006122c287828801611ffa565b94505060206122d387828801611ffa565b93505060406122e487828801611f45565b925050606085013567ffffffffffffffff81111561230557612304611da9565b5b6123118782880161226c565b91505092959194509250565b600067ffffffffffffffff8211156123385761233761216f565b5b61234182611eb8565b9050602081019050919050565b600061236161235c8461231d565b6121cf565b90508281526020810184848401111561237d5761237c61216a565b5b61238884828561221b565b509392505050565b600082601f8301126123a5576123a4612165565b5b81356123b584826020860161234e565b91505092915050565b6000602082840312156123d4576123d3611da4565b5b600082013567ffffffffffffffff8111156123f2576123f1611da9565b5b6123fe84828501612390565b91505092915050565b6000806040838503121561241e5761241d611da4565b5b600061242c85828601611ffa565b925050602061243d85828601611ffa565b9150509250929050565b7f4e487b7100000000000000000000000000000000000000000000000000000000600052602260045260246000fd5b6000600282049050600182168061248e57607f821691505b602082108114156124a2576124a1612447565b5b50919050565b7f4552433732313a20617070726f76616c20746f2063757272656e74206f776e6560008201527f7200000000000000000000000000000000000000000000000000000000000000602082015250565b6000612504602183611e74565b915061250f826124a8565b604082019050919050565b60006020820190508181036000830152612533816124f7565b9050919050565b7f4552433732313a20617070726f76652063616c6c6572206973206e6f7420746f60008201527f6b656e206f776e6572206e6f7220617070726f76656420666f7220616c6c0000602082015250565b6000612596603e83611e74565b91506125a18261253a565b604082019050919050565b600060208201905081810360008301526125c581612589565b9050919050565b7f4552433732313a2063616c6c6572206973206e6f7420746f6b656e206f776e6560008201527f72206e6f7220617070726f766564000000000000000000000000000000000000602082015250565b6000612628602e83611e74565b9150612633826125cc565b604082019050919050565b600060208201905081810360008301526126578161261b565b9050919050565b7f5265656e7472616e637947756172643a207265656e7472616e742063616c6c00600082015250565b6000612694601f83611e74565b915061269f8261265e565b602082019050919050565b600060208201905081810360008301526126c381612687565b9050919050565b7f4552433732313a20696e76616c696420746f6b656e2049440000000000000000600082015250565b6000612700601883611e74565b915061270b826126ca565b602082019050919050565b6000602082019050818103600083015261272f816126f3565b9050919050565b7f4552433732313a2061646472657373207a65726f206973206e6f74206120766160008201527f6c6964206f776e65720000000000000000000000000000000000000000000000602082015250565b6000612792602983611e74565b915061279d82612736565b604082019050919050565b600060208201905081810360008301526127c181612785565b9050919050565b7f4f776e61626c653a206e6577206f776e657220697320746865207a65726f206160008201527f6464726573730000000000000000000000000000000000000000000000000000602082015250565b6000612824602683611e74565b915061282f826127c8565b604082019050919050565b6000602082019050818103600083015261285381612817565b9050919050565b7f4552433732313a207472616e736665722066726f6d20696e636f72726563742060008201527f6f776e6572000000000000000000000000000000000000000000000000000000602082015250565b60006128b6602583611e74565b91506128c18261285a565b604082019050919050565b600060208201905081810360008301526128e5816128a9565b9050919050565b7f4552433732313a207472616e7366657220746f20746865207a65726f2061646460008201527f7265737300000000000000000000000000000000000000000000000000000000602082015250565b6000612948602483611e74565b9150612953826128ec565b604082019050919050565b600060208201905081810360008301526129778161293b565b9050919050565b7f4e487b7100000000000000000000000000000000000000000000000000000000600052601160045260246000fd5b60006129b882611f24565b91506129c383611f24565b9250828210156129d6576129d561297e565b5b828203905092915050565b60006129ec82611f24565b91506129f783611f24565b9250827fffffffffffffffffffffffffffffffffffffffffffffffffffffffffffffffff03821115612a2c57612a2b61297e565b5b828201905092915050565b7f4f776e61626c653a2063616c6c6572206973206e6f7420746865206f776e6572600082015250565b6000612a6d602083611e74565b9150612a7882612a37565b602082019050919050565b60006020820190508181036000830152612a9c81612a60565b9050919050565b7f4552433732313a20617070726f766520746f2063616c6c657200000000000000600082015250565b6000612ad9601983611e74565b9150612ae482612aa3565b602082019050919050565b60006020820190508181036000830152612b0881612acc565b9050919050565b7f4552433732313a207472616e7366657220746f206e6f6e20455243373231526560008201527f63656976657220696d706c656d656e7465720000000000000000000000000000602082015250565b6000612b6b603283611e74565b9150612b7682612b0f565b604082019050919050565b60006020820190508181036000830152612b9a81612b5e565b9050919050565b600081905092915050565b6000612bb782611e69565b612bc18185612ba1565b9350612bd1818560208601611e85565b80840191505092915050565b6000612be98285612bac565b9150612bf58284612bac565b91508190509392505050565b7f45524337323155524953746f726167653a2055524920736574206f66206e6f6e60008201527f6578697374656e7420746f6b656e000000000000000000000000000000000000602082015250565b6000612c5d602e83611e74565b9150612c6882612c01565b604082019050919050565b60006020820190508181036000830152612c8c81612c50565b9050919050565b600081519050919050565b600082825260208201905092915050565b6000612cba82612c93565b612cc48185612c9e565b9350612cd4818560208601611e85565b612cdd81611eb8565b840191505092915050565b6000608082019050612cfd6000830187611fb9565b612d0a6020830186611fb9565b612d1760408301856120cf565b8181036060830152612d298184612caf565b905095945050505050565b600081519050612d4381611dda565b92915050565b600060208284031215612d5f57612d5e611da4565b5b6000612d6d84828501612d34565b91505092915050565b6000612d8182611f24565b91507fffffffffffffffffffffffffffffffffffffffffffffffffffffffffffffffff821415612db457612db361297e565b5b600182019050919050565b7f4e487b7100000000000000000000000000000000000000000000000000000000600052601260045260246000fd5b6000612df982611f24565b9150612e0483611f24565b925082612e1457612e13612dbf565b5b828204905092915050565b6000612e2a82611f24565b9150612e3583611f24565b925082612e4557612e44612dbf565b5b828206905092915050565b7f4e487b7100000000000000000000000000000000000000000000000000000000600052603260045260246000fd5b7f4552433732313a206d696e7420746f20746865207a65726f2061646472657373600082015250565b6000612eb5602083611e74565b9150612ec082612e7f565b602082019050919050565b60006020820190508181036000830152612ee481612ea8565b9050919050565b7f4552433732313a20746f6b656e20616c7265616479206d696e74656400000000600082015250565b6000612f21601c83611e74565b9150612f2c82612eeb565b602082019050919050565b60006020820190508181036000830152612f5081612f14565b905091905056fea26469706673582212209862d4f25267236bf232e4649d0c30173f6ee1004065daaeeff7b07ef3f3b53d64736f6c63430008090033",
  "linkReferences": {},
  "deployedLinkReferences": {}
}